:020000002A2DA7
:0E000600213083120313FD00FD0B07280800B4
:06001400000000000800DE
:10001A000F3083120313FC004730FD00FD0B132839
:0A002A00FC0B132800000000080082
:0E003400F201F101F001F801F30100300800C3
:1000420083120313DE1B27288611282886155E1BC0
:100052002C2806112D280615DE1A31288610322882
:1000620086145E1A36280610372806143D183B28D7
:1000720006163C28061286160A208612DE19432826
:100082008611442886155E19482806114928061546
:10009200DE184D2886104E2886145E185228061047
:1000A200532806143D185728061658280612861695
:1000B2000A2086123D1C5F280D20602803200800BC
:1000C200FB14FB1F6B28FF30F300F200F100F0007D
:0800D200FA0DF20CFF300800EA
:1000DA007B15FB1F77280130F300F201F101F001D3
:0800EA00FA0DF20CFF300800D2
:1000F20083120313FA017308031D7A147708031D90
:10010200FA147A080319C528033A031990287A18B1
:100112008D28F61FC328C128F21FC128C3287208E0
:100122008039FA00F21376088039F6137A06031939
:100132009E287A080319C128C32877087302031975
:10014200A528031CB928BD28760872020319AC2819
:10015200031CB928BD28750871020319B328031CB2
:10016200B928BD28740870020319C5280318BD28D0
:10017200FA080319C328C128FA080319C128C32899
:1001820003140800031008000314031508000800F4
:10019200831203133D105C08DE0021203D14080089
:1001A20083120313FD01F801700803190034740669
:1001B200FA00FA1BFD09FB01F41FE128F409F40A15
:1001C200F01FE528F009F00A70087404FA00FA1B1F
:1001D20009297408F802F00D700DF80D7408F8077B
:1001E200F00D0630FC00700DF80D74087018F8025E
:1001F200701CF807F00DFC0BF428701CF8077B1834
:100202001729FD1F0034F009F00AF809F80A003432
:10021200F41F1429F01B11297008F800F0010229BB
:10022200F001F00A0034F009FB0AEA28F80A74081F
:100232007802031D0229F801F00AF01F0229FF3497
:020242000800B2
:1002440083120313FB017308031D7708031979292B
:1002540072087606FA007708F3077E30031C362905
:10026400F30203187C293929F302031C7F2972083D
:10027400F8007108FC007008FD00F817F617031069
:10028400F201F101F0011830A0007D1C532974081B
:10029400F00775080318750FF10776080318760F31
:1002A400F207F20CF10CF00CF80CFC0CFD0C031032
:1002B400A00B4729F21B6329F80DF00DF10DF20D87
:1002C400F3037B1B701C7529F81F7529F00A0319A9
:1002D400F10A0319F20A031D7529F20CF10CF00C52
:1002E400F30A03197C29FA1FF21300308129013023
:1002F4001A20812902306120812904306D200000F8
:020304000800EF
:08030600FA1FF2130030080099
:10030E00831203135C08F2007208F100F20A5D0812
:10031E00F000DD0A700884000008F0007108840007
:10032E007008800071088400000803199F298B292A
:06033E005C08F00008005D
:1003440083120313DA01DB014F08D6005008D700EB
:100354005108D8005208D9005908FF3A031DBC2996
:100364005808FF3A031DBC295708FF3A031DBC294E
:100374005608FF3A031DC6295308DC002130DD006E
:1003840087210330F0009F2B0130D400D81FD529DA
:1003940080305806F0007008D800D40A530884004E
:1003A4002D308000D30A0030F0005906031DE429E3
:1003B40070085806031DE42970085706031DE42934
:1003C4005608003A031DED295308DC002530DD00F2
:1003D4008721F0019F2B5908FF3A031DFB29580878
:1003E400003A031DFB295708003A031DFB29560850
:1003F400003A031D052A5308DC002730DD0087215D
:100404005408F0009F2B0030F4000030F500003059
:10041400F6007F30F7005608F0005708F10058083E
:10042400F2005908F3007920013003180030F0007D
:1004340070080319382A5608F0005708F1005808C4
:10044400F2005908F3000030F4000030F5002030C9
:10045400F6008230F70022217008D6007108D70018
:100464007208D8007308D900DB03052A0030F400B1
:100474000030F5002030F6008230F7005608F00016
:100484005708F1005808F2005908F30079200130A8
:10049400031C0030F000700803196B2A5608F000A2
:1004A4005708F1005808F2005908F300CD30F40061
:1004B400CC30F5004C30F6007B30F7002221700878
:1004C400D6007108D7007208D8007308D900DB0A77
:1004D400382AFF305605F800FF305705F9007F3001
:1004E4005805FA0000305905FB007808F400790833
:1004F400F5007A08F6007B08F700F40DF50DF60D0B
:10050400F70D741000305605F00000305705F10067
:1005140000305805F200FF305905F3007008D6008A
:100524007108D7007208D8007308D90074085604FB
:10053400F00075085704F10076085804F2007708B3
:100544005904F3007008D6007108D7007208D80067
:100554007308D9007F305902F0007008D5000130CB
:10056400D9007008F4005608F0005708F100580844
:10057400F2005908F30074080319C72AF00DF10DAD
:10058400F20DF30D7010FF3EBE2A7008D6007108FC
:10059400D7007208D8007308D9005908303EF0001B
:1005A4005308840070088000D30A80305B06F00092
:1005B4008030013A7002031CE82A8030063AF000C9
:1005C40080305B067002031CE82AEF2A530884007B
:1005D4002E308000D30A0130DA000630D5005508E9
:1005E400003A03194D2BD9015608F0005708F100C1
:1005F4005808F2005908F300F00DF10DF20DF30D57
:100604007010F00DF10DF20DF30D70105608F00797
:1006140057080318570FF10758080318580FF20723
:1006240059080318590FF3077008D6007108D7004A
:100634007208D8007308D9005608F0005708F10072
:100644005808F2005908F300F00DF10DF20DF30D06
:1006540070107008D6007108D7007208D8007308AB
:10066400D9005908303EF000530884007008800017
:10067400D30A5A08003A031D4B2BDB035B08003AEC
:10068400031D4B2B530884002E308000D30A013005
:10069400DA00D503F12AFF30530784000008303A0A
:1006A400031D562BD3034D2BFF3053078400000842
:1006B4002E3A031D5E2BD3035B08003A03199B2BD0
:1006C4005308840065308000D30A80305B06F00054
:1006D4008030003A70020318772B530884002D30C1
:1006E4008000D30A5B08003CDB005B08D500803047
:1006F400093AF00080305B06700203188D2B0A3033
:10070400F4005508F000D1203030F007530884007D
:1007140070088000D30A0A30F4005508F000D12094
:100724007808F0003030F007530884007008800027
:0C073400D30A530884008001F001080083
:100740000E3083120313FD00FD0BA42B00000800E4
:10075000A0017208031DBD2B7108F2007008F100A2
:10076000F001A0157208031DBD2B7108F200F10104
:10077000A011201672080319CB2B2008F302031DC9
:10078000031CCF2B0310F21BD32BF00DF10DF20D38
:10079000F30BC32BCF2B0130FC001A20D62B0230D9
:0E07A000FC006D20D62B0430FC0083210800E5
:1007AE00E92B803083120313CF00FC2BC030CF0017
:1007BE00FC2B9430CF00FC2BD430CF00FC2B8030A0
:1007CE00CF00FC2B831203134F08013A0319D82BC9
:1007DE004F08023A0319DD2B4F08033A0319E02B99
:1007EE004F08043A0319E32BE62B5003F0004F0891
:1007FE00F0077008CF007008DE0021203D10D201F6
:10080E0052085107840000080319152C520851078D
:10081E0084000008DC00C920D20A072C3D14080011
:10082E0083120313D00150084F07840000080319E8
:10083E00282C50084F0784000008DC00C920D00A7D
:04084E001A2C080058
:10085200831203137008F8007108F000F101F2012D
:10086200F301FB01FC019630F300FA01F01F3F2C6B
:10087200F809F009F80A0319F00AFA177008F100EA
:0C0882007808F000F801F201A82308003B
:10088E00831203132B08CF002C08D0002D08D100A3
:10089E002E08D2003E30D300A2210130CF0001300D
:1008AE00D0002F30D100D7233E30CF001724563042
:0608BE00DC00C920080067
:1008C400831203139F01C0309F043509F0007008A0
:1008D40083169F051F179F1783124E08F000F00D13
:1008E4007010F00D7010F00D701070089F041F143C
:1008F400A0231F151F1D802C00007C2C1F101E0818
:10090400F100F00183161E08F0040030F104080021
:0E0914008312031339088A0038088200080095
:1009220083120313CE01622470088312B600710889
:10093200B70029243930F400B430F5004830F6000D
:100942007A30F70022217008AB007108AC007208FF
:10095200AD007308AE0047240530FB000F30FC00E9
:10096200F130FD00FD0BB32CFC0BB32CFB0BB32CB5
:0209720008007B
:10097400FF3083120313BA00FF30BB00FF30BC000A
:10098400FF309F01C0309F043509F00070088316C2
:0C0994009F051F179F1783121F140800F7
:1009A0008A248A110A128000840AB80A0319B90A33
:0809B000F003031DD02C080028
:1009B8008316031386120612061086100611861176
:1009C80083128612061286110611861006100D2053
:1009D8000D200D208614061486160A2086120D2076
:1009E80086160A2086120D2086160A2086120D20E9
:1009F800061086160A2086120D2086160A208612F0
:100A08008610861586160A2086120D208611061471
:100A180086160A208612061086160A2086120D20CF
:100A280086160A208612061486160A2086120D20BB
:100A3800061086160A2086128615061586140614D0
:0C0A480086160A2086120D203D140800BE
:100A54005025DC24BA240C30DE0021209124302DD2
:020A6400322D31
:100AA00021308400173083120313F0003830B8006F
:080AB0000530B900D024080054
:080A70004E3461344E340034B1
:040A780030340034E2
:080A7C0049344E3446340034C5
:080A840000340034003400349A
:0C0A8C0076346F346C3474343D34003424
:020A98000F3419
:040A9A0000340034F0
:02400E004A2F37
:00000001FF
